{
  "contractName": "Exchange",
  "abi": [
    {
      "inputs": [],
      "stateMutability": "nonpayable",
      "type": "constructor"
    },
    {
      "inputs": [],
      "name": "owner",
      "outputs": [
        {
          "internalType": "address",
          "name": "",
          "type": "address"
        }
      ],
      "stateMutability": "view",
      "type": "function",
      "constant": true
    },
    {
      "stateMutability": "payable",
      "type": "receive",
      "payable": true
    },
    {
      "inputs": [],
      "name": "checkEthBalance",
      "outputs": [
        {
          "internalType": "uint256",
          "name": "",
          "type": "uint256"
        }
      ],
      "stateMutability": "view",
      "type": "function",
      "constant": true
    },
    {
      "inputs": [],
      "name": "getListOfSupportedTokens",
      "outputs": [
        {
          "internalType": "address[]",
          "name": "",
          "type": "address[]"
        }
      ],
      "stateMutability": "view",
      "type": "function",
      "constant": true
    },
    {
      "inputs": [
        {
          "internalType": "address",
          "name": "srcToken",
          "type": "address"
        },
        {
          "internalType": "address",
          "name": "destToken",
          "type": "address"
        },
        {
          "internalType": "uint256",
          "name": "amount",
          "type": "uint256"
        }
      ],
      "name": "getExchangeRate",
      "outputs": [
        {
          "internalType": "uint256",
          "name": "",
          "type": "uint256"
        }
      ],
      "stateMutability": "view",
      "type": "function",
      "constant": true
    },
    {
      "inputs": [
        {
          "internalType": "address",
          "name": "srcTokenAddress",
          "type": "address"
        },
        {
          "internalType": "address",
          "name": "destTokenAddress",
          "type": "address"
        },
        {
          "internalType": "uint256",
          "name": "srcAmount",
          "type": "uint256"
        }
      ],
      "name": "exchange",
      "outputs": [
        {
          "internalType": "uint256",
          "name": "",
          "type": "uint256"
        }
      ],
      "stateMutability": "nonpayable",
      "type": "function"
    },
    {
      "inputs": [
        {
          "internalType": "address",
          "name": "destTokenAddress",
          "type": "address"
        }
      ],
      "name": "exchangeEthToToken",
      "outputs": [
        {
          "internalType": "uint256",
          "name": "",
          "type": "uint256"
        }
      ],
      "stateMutability": "payable",
      "type": "function",
      "payable": true
    },
    {
      "inputs": [
        {
          "internalType": "address",
          "name": "srcTokenAddress",
          "type": "address"
        },
        {
          "internalType": "uint256",
          "name": "amount",
          "type": "uint256"
        }
      ],
      "name": "exchangeTokenToEth",
      "outputs": [
        {
          "internalType": "uint256",
          "name": "",
          "type": "uint256"
        }
      ],
      "stateMutability": "nonpayable",
      "type": "function"
    },
    {
      "inputs": [
        {
          "internalType": "contract Reserve",
          "name": "newReserve",
          "type": "address"
        }
      ],
      "name": "addReserve",
      "outputs": [],
      "stateMutability": "nonpayable",
      "type": "function"
    },
    {
      "inputs": [
        {
          "internalType": "address",
          "name": "tokenAddress",
          "type": "address"
        }
      ],
      "name": "buyToken",
      "outputs": [],
      "stateMutability": "payable",
      "type": "function",
      "payable": true
    },
    {
      "inputs": [
        {
          "internalType": "address",
          "name": "tokenAddress",
          "type": "address"
        }
      ],
      "name": "removeReserve",
      "outputs": [],
      "stateMutability": "nonpayable",
      "type": "function"
    }
  ],
  "bytecode": "0x608060405234801561001057600080fd5b5033600460006101000a81548173ffffffffffffffffffffffffffffffffffffffff021916908373ffffffffffffffffffffffffffffffffffffffff160217905550612fbb806100616000396000f3fe6080604052600436106100955760003560e01c8063969e375611610059578063969e37561461017e578063df0e81f8146101bb578063ea4e6ded146101f8578063ec1ca07114610223578063f5deae931461024e5761009c565b80636b441d8a146100a15780637e72fb52146100de57806380436fe0146100fa5780638da5cb5b14610123578063915db34e1461014e5761009c565b3661009c57005b600080fd5b3480156100ad57600080fd5b506100c860048036038101906100c39190611f5d565b610277565b6040516100d59190611fbf565b60405180910390f35b6100f860048036038101906100f39190611fda565b6104ae565b005b34801561010657600080fd5b50610121600480360381019061011c9190611fda565b6105e2565b005b34801561012f57600080fd5b5061013861074c565b6040516101459190612016565b60405180910390f35b61016860048036038101906101639190611fda565b610772565b6040516101759190611fbf565b60405180910390f35b34801561018a57600080fd5b506101a560048036038101906101a09190611f5d565b610a00565b6040516101b29190611fbf565b60405180910390f35b3480156101c757600080fd5b506101e260048036038101906101dd9190612031565b610f44565b6040516101ef9190611fbf565b60405180910390f35b34801561020457600080fd5b5061020d611380565b60405161021a919061212f565b60405180910390f35b34801561022f57600080fd5b5061023861140e565b6040516102459190611fbf565b60405180910390f35b34801561025a57600080fd5b506102756004803603810190610270919061218f565b61142d565b005b60008060019050600073ffffffffffffffffffffffffffffffffffffffff168573ffffffffffffffffffffffffffffffffffffffff1614610382576000808673ffffffffffffffffffffffffffffffffffffffff1673ffffffffffffffffffffffffffffffffffffffff16815260200190815260200160002060009054906101000a900473ffffffffffffffffffffffffffffffffffffffff1673ffffffffffffffffffffffffffffffffffffffff16632c4e722e6040518163ffffffff1660e01b8152600401602060405180830381865afa15801561035b573d6000803e3d6000fd5b505050506040513d601f19601f8201168201806040525081019061037f91906121d1565b90505b600060019050600073ffffffffffffffffffffffffffffffffffffffff168573ffffffffffffffffffffffffffffffffffffffff161461048c576000808673ffffffffffffffffffffffffffffffffffffffff1673ffffffffffffffffffffffffffffffffffffffff16815260200190815260200160002060009054906101000a900473ffffffffffffffffffffffffffffffffffffffff1673ffffffffffffffffffffffffffffffffffffffff16632c4e722e6040518163ffffffff1660e01b8152600401602060405180830381865afa158015610465573d6000803e3d6000fd5b505050506040513d601f19601f8201168201806040525081019061048991906121d1565b90505b818185610499919061222d565b6104a3919061229e565b925050509392505050565b600460009054906101000a900473ffffffffffffffffffffffffffffffffffffffff1673ffffffffffffffffffffffffffffffffffffffff163373ffffffffffffffffffffffffffffffffffffffff161461050857600080fd5b60008060008373ffffffffffffffffffffffffffffffffffffffff1673ffffffffffffffffffffffffffffffffffffffff16815260200190815260200160002060009054906101000a900473ffffffffffffffffffffffffffffffffffffffff1690508073ffffffffffffffffffffffffffffffffffffffff1663a6f2ae3a346040518263ffffffff1660e01b815260040160206040518083038185885af11580156105b8573d6000803e3d6000fd5b50505050506040513d601f19601f820116820180604052508101906105dd9190612307565b505050565b600460009054906101000a900473ffffffffffffffffffffffffffffffffffffffff1673ffffffffffffffffffffffffffffffffffffffff163373ffffffffffffffffffffffffffffffffffffffff161461063c57600080fd5b60005b6001805490508160ff1610156106e75760018160ff168154811061066657610665612334565b5b9060005260206000200160009054906101000a900473ffffffffffffffffffffffffffffffffffffffff1673ffffffffffffffffffffffffffffffffffffffff168273ffffffffffffffffffffffffffffffffffffffff16036106d4576106cf8160ff166119cd565b6106e7565b80806106df90612370565b91505061063f565b506000808273ffffffffffffffffffffffffffffffffffffffff1673ffffffffffffffffffffffffffffffffffffffff16815260200190815260200160002060006101000a81549073ffffffffffffffffffffffffffffffffffffffff021916905550565b600460009054906101000a900473ffffffffffffffffffffffffffffffffffffffff1681565b6000806000808473ffffffffffffffffffffffffffffffffffffffff1673ffffffffffffffffffffffffffffffffffffffff16815260200190815260200160002060009054906101000a900473ffffffffffffffffffffffffffffffffffffffff16905060008173ffffffffffffffffffffffffffffffffffffffff1663fc0c546a6040518163ffffffff1660e01b8152600401602060405180830381865afa158015610823573d6000803e3d6000fd5b505050506040513d601f19601f8201168201806040525081019061084791906123d7565b90508173ffffffffffffffffffffffffffffffffffffffff1663a6f2ae3a346040518263ffffffff1660e01b815260040160206040518083038185885af1158015610896573d6000803e3d6000fd5b50505050506040513d601f19601f820116820180604052508101906108bb9190612307565b6108fa576040517f08c379a00000000000000000000000000000000000000000000000000000000081526004016108f190612487565b60405180910390fd5b6000610974348473ffffffffffffffffffffffffffffffffffffffff16632c4e722e6040518163ffffffff1660e01b8152600401602060405180830381865afa15801561094b573d6000803e3d6000fd5b505050506040513d601f19601f8201168201806040525081019061096f91906121d1565b611bf9565b90508173ffffffffffffffffffffffffffffffffffffffff1663a9059cbb33836040518363ffffffff1660e01b81526004016109b19291906124a7565b6020604051808303816000875af11580156109d0573d6000803e3d6000fd5b505050506040513d601f19601f820116820180604052508101906109f49190612307565b50809350505050919050565b6000806000808673ffffffffffffffffffffffffffffffffffffffff1673ffffffffffffffffffffffffffffffffffffffff16815260200190815260200160002060009054906101000a900473ffffffffffffffffffffffffffffffffffffffff16905060008060008673ffffffffffffffffffffffffffffffffffffffff1673ffffffffffffffffffffffffffffffffffffffff16815260200190815260200160002060009054906101000a900473ffffffffffffffffffffffffffffffffffffffff16905060008273ffffffffffffffffffffffffffffffffffffffff1663fc0c546a6040518163ffffffff1660e01b8152600401602060405180830381865afa158015610b14573d6000803e3d6000fd5b505050506040513d601f19601f82011682018060405250810190610b3891906123d7565b905060008273ffffffffffffffffffffffffffffffffffffffff1663fc0c546a6040518163ffffffff1660e01b8152600401602060405180830381865afa158015610b87573d6000803e3d6000fd5b505050506040513d601f19601f82011682018060405250810190610bab91906123d7565b905060008611610bf0576040517f08c379a0000000000000000000000000000000000000000000000000000000008152600401610be790612542565b60405180910390fd5b858273ffffffffffffffffffffffffffffffffffffffff1663dd62ed3e33306040518363ffffffff1660e01b8152600401610c2c929190612562565b602060405180830381865afa158015610c49573d6000803e3d6000fd5b505050506040513d601f19601f82011682018060405250810190610c6d91906121d1565b1015610cae576040517f08c379a0000000000000000000000000000000000000000000000000000000008152600401610ca5906125fd565b60405180910390fd5b6000610cbb898989610277565b9050868373ffffffffffffffffffffffffffffffffffffffff166370a08231336040518263ffffffff1660e01b8152600401610cf79190612016565b602060405180830381865afa158015610d14573d6000803e3d6000fd5b505050506040513d601f19601f82011682018060405250810190610d3891906121d1565b1015610d79576040517f08c379a0000000000000000000000000000000000000000000000000000000008152600401610d709061268f565b60405180910390fd5b808273ffffffffffffffffffffffffffffffffffffffff166370a08231306040518263ffffffff1660e01b8152600401610db39190612016565b602060405180830381865afa158015610dd0573d6000803e3d6000fd5b505050506040513d601f19601f82011682018060405250810190610df491906121d1565b1015610e35576040517f08c379a0000000000000000000000000000000000000000000000000000000008152600401610e2c90612747565b60405180910390fd5b8273ffffffffffffffffffffffffffffffffffffffff166323b872dd33308a6040518463ffffffff1660e01b8152600401610e7293929190612767565b6020604051808303816000875af1158015610e91573d6000803e3d6000fd5b505050506040513d601f19601f82011682018060405250810190610eb59190612307565b508173ffffffffffffffffffffffffffffffffffffffff1663a9059cbb33836040518363ffffffff1660e01b8152600401610ef19291906124a7565b6020604051808303816000875af1158015610f10573d6000803e3d6000fd5b505050506040513d601f19601f82011682018060405250810190610f349190612307565b5080955050505050509392505050565b6000806000808573ffffffffffffffffffffffffffffffffffffffff1673ffffffffffffffffffffffffffffffffffffffff16815260200190815260200160002060009054906101000a900473ffffffffffffffffffffffffffffffffffffffff16905060008173ffffffffffffffffffffffffffffffffffffffff1663fc0c546a6040518163ffffffff1660e01b8152600401602060405180830381865afa158015610ff5573d6000803e3d6000fd5b505050506040513d601f19601f8201168201806040525081019061101991906123d7565b90508073ffffffffffffffffffffffffffffffffffffffff166323b872dd3330876040518463ffffffff1660e01b815260040161105893929190612767565b6020604051808303816000875af1158015611077573d6000803e3d6000fd5b505050506040513d601f19601f8201168201806040525081019061109b9190612307565b508073ffffffffffffffffffffffffffffffffffffffff1663095ea7b36000808873ffffffffffffffffffffffffffffffffffffffff1673ffffffffffffffffffffffffffffffffffffffff16815260200190815260200160002060009054906101000a900473ffffffffffffffffffffffffffffffffffffffff16678ac7230489e800006040518363ffffffff1660e01b815260040161113d9291906127e3565b6020604051808303816000875af115801561115c573d6000803e3d6000fd5b505050506040513d601f19601f820116820180604052508101906111809190612307565b508173ffffffffffffffffffffffffffffffffffffffff1663e4849b32856040518263ffffffff1660e01b81526004016111ba9190611fbf565b6020604051808303816000875af11580156111d9573d6000803e3d6000fd5b505050506040513d601f19601f820116820180604052508101906111fd9190612307565b61123c576040517f08c379a00000000000000000000000000000000000000000000000000000000081526004016112339061287e565b60405180910390fd5b3373ffffffffffffffffffffffffffffffffffffffff166108fc8373ffffffffffffffffffffffffffffffffffffffff16632c4e722e6040518163ffffffff1660e01b8152600401602060405180830381865afa1580156112a1573d6000803e3d6000fd5b505050506040513d601f19601f820116820180604052508101906112c591906121d1565b866112d0919061229e565b9081150290604051600060405180830381858888f193505050501580156112fb573d6000803e3d6000fd5b508173ffffffffffffffffffffffffffffffffffffffff16632c4e722e6040518163ffffffff1660e01b8152600401602060405180830381865afa158015611347573d6000803e3d6000fd5b505050506040513d601f19601f8201168201806040525081019061136b91906121d1565b84611376919061229e565b9250505092915050565b6060600180548060200260200160405190810160405280929190818152602001828054801561140457602002820191906000526020600020905b8160009054906101000a900473ffffffffffffffffffffffffffffffffffffffff1673ffffffffffffffffffffffffffffffffffffffff16815260200190600101908083116113ba575b5050505050905090565b60003073ffffffffffffffffffffffffffffffffffffffff1631905090565b600460009054906101000a900473ffffffffffffffffffffffffffffffffffffffff1673ffffffffffffffffffffffffffffffffffffffff163373ffffffffffffffffffffffffffffffffffffffff161461148757600080fd5b60008173ffffffffffffffffffffffffffffffffffffffff1663fc0c546a6040518163ffffffff1660e01b8152600401602060405180830381865afa1580156114d4573d6000803e3d6000fd5b505050506040513d601f19601f820116820180604052508101906114f891906123d7565b9050600081905060008273ffffffffffffffffffffffffffffffffffffffff166395d89b416040518163ffffffff1660e01b8152600401600060405180830381865afa15801561154c573d6000803e3d6000fd5b505050506040513d6000823e3d601f19601f8201168201806040525081019061157591906129ff565b905060008373ffffffffffffffffffffffffffffffffffffffff166306fdde036040518163ffffffff1660e01b8152600401600060405180830381865afa1580156115c4573d6000803e3d6000fd5b505050506040513d6000823e3d601f19601f820116820180604052508101906115ed91906129ff565b905060005b6001805490508160ff16101561187b5760018160ff168154811061161957611618612334565b5b9060005260206000200160009054906101000a900473ffffffffffffffffffffffffffffffffffffffff1673ffffffffffffffffffffffffffffffffffffffff168473ffffffffffffffffffffffffffffffffffffffff160361167b57600080fd5b6117a18573ffffffffffffffffffffffffffffffffffffffff166395d89b416040518163ffffffff1660e01b8152600401600060405180830381865afa1580156116c9573d6000803e3d6000fd5b505050506040513d6000823e3d601f19601f820116820180604052508101906116f291906129ff565b60028360ff168154811061170957611708612334565b5b90600052602060002001805461171e90612a77565b80601f016020809104026020016040519081016040528092919081815260200182805461174a90612a77565b80156117975780601f1061176c57610100808354040283529160200191611797565b820191906000526020600020905b81548152906001019060200180831161177a57829003601f168201915b5050505050611c66565b156117ab57600080fd5b61185e8260038360ff16815481106117c6576117c5612334565b5b9060005260206000200180546117db90612a77565b80601f016020809104026020016040519081016040528092919081815260200182805461180790612a77565b80156118545780601f1061182957610100808354040283529160200191611854565b820191906000526020600020905b81548152906001019060200180831161183757829003601f168201915b5050505050611c66565b1561186857600080fd5b808061187390612370565b9150506115f2565b50846000808573ffffffffffffffffffffffffffffffffffffffff1673ffffffffffffffffffffffffffffffffffffffff16815260200190815260200160002060006101000a81548173ffffffffffffffffffffffffffffffffffffffff021916908373ffffffffffffffffffffffffffffffffffffffff1602179055506001839080600181540180825580915050600190039060005260206000200160009091909190916101000a81548173ffffffffffffffffffffffffffffffffffffffff021916908373ffffffffffffffffffffffffffffffffffffffff1602179055506002829080600181540180825580915050600190039060005260206000200160009091909190915090816119909190612c55565b506003819080600181540180825580915050600190039060005260206000200160009091909190915090816119c59190612c55565b505050505050565b60008190505b600180805490506119e49190612d27565b811015611b4e57600180826119f99190612d5b565b81548110611a0a57611a09612334565b5b9060005260206000200160009054906101000a900473ffffffffffffffffffffffffffffffffffffffff1660018281548110611a4957611a48612334565b5b9060005260206000200160006101000a81548173ffffffffffffffffffffffffffffffffffffffff021916908373ffffffffffffffffffffffffffffffffffffffff1602179055506002600182611aa09190612d5b565b81548110611ab157611ab0612334565b5b9060005260206000200160028281548110611acf57611ace612334565b5b906000526020600020019081611ae59190612dba565b506003600182611af59190612d5b565b81548110611b0657611b05612334565b5b9060005260206000200160038281548110611b2457611b23612334565b5b906000526020600020019081611b3a9190612dba565b508080611b4690612ea2565b9150506119d3565b506001805480611b6157611b60612eea565b5b6001900381819060005260206000200160006101000a81549073ffffffffffffffffffffffffffffffffffffffff021916905590556002805480611ba857611ba7612eea565b5b600190038181906000526020600020016000611bc49190611e58565b90556003805480611bd857611bd7612eea565b5b600190038181906000526020600020016000611bf49190611e58565b905550565b600080821480611c21575082828385611c12919061222d565b925082611c1f919061229e565b145b611c60576040517f08c379a0000000000000000000000000000000000000000000000000000000008152600401611c5790612f65565b60405180910390fd5b92915050565b600080611c738484611c7c565b14905092915050565b60008083905060008390506000825190508082511015611c9b57815190505b60005b81811015611dfe57828181518110611cb957611cb8612334565b5b602001015160f81c60f81b7effffffffffffffffffffffffffffffffffffffffffffffffffffffffffffff1916848281518110611cf957611cf8612334565b5b602001015160f81c60f81b7effffffffffffffffffffffffffffffffffffffffffffffffffffffffffffff19161015611d58577fffffffffffffffffffffffffffffffffffffffffffffffffffffffffffffffff945050505050611e52565b828181518110611d6b57611d6a612334565b5b602001015160f81c60f81b7effffffffffffffffffffffffffffffffffffffffffffffffffffffffffffff1916848281518110611dab57611daa612334565b5b602001015160f81c60f81b7effffffffffffffffffffffffffffffffffffffffffffffffffffffffffffff19161115611deb576001945050505050611e52565b8080611df690612ea2565b915050611c9e565b50815183511015611e34577fffffffffffffffffffffffffffffffffffffffffffffffffffffffffffffffff9350505050611e52565b815183511115611e4a5760019350505050611e52565b600093505050505b92915050565b508054611e6490612a77565b6000825580601f10611e765750611e95565b601f016020900490600052602060002090810190611e949190611e98565b5b50565b5b80821115611eb1576000816000905550600101611e99565b5090565b6000604051905090565b600080fd5b600080fd5b600073ffffffffffffffffffffffffffffffffffffffff82169050919050565b6000611ef482611ec9565b9050919050565b611f0481611ee9565b8114611f0f57600080fd5b50565b600081359050611f2181611efb565b92915050565b6000819050919050565b611f3a81611f27565b8114611f4557600080fd5b50565b600081359050611f5781611f31565b92915050565b600080600060608486031215611f7657611f75611ebf565b5b6000611f8486828701611f12565b9350506020611f9586828701611f12565b9250506040611fa686828701611f48565b9150509250925092565b611fb981611f27565b82525050565b6000602082019050611fd46000830184611fb0565b92915050565b600060208284031215611ff057611fef611ebf565b5b6000611ffe84828501611f12565b91505092915050565b61201081611ee9565b82525050565b600060208201905061202b6000830184612007565b92915050565b6000806040838503121561204857612047611ebf565b5b600061205685828601611f12565b925050602061206785828601611f48565b9150509250929050565b600081519050919050565b600082825260208201905092915050565b6000819050602082019050919050565b6120a681611ee9565b82525050565b60006120b8838361209d565b60208301905092915050565b6000602082019050919050565b60006120dc82612071565b6120e6818561207c565b93506120f18361208d565b8060005b8381101561212257815161210988826120ac565b9750612114836120c4565b9250506001810190506120f5565b5085935050505092915050565b6000602082019050818103600083015261214981846120d1565b905092915050565b600061215c82611ee9565b9050919050565b61216c81612151565b811461217757600080fd5b50565b60008135905061218981612163565b92915050565b6000602082840312156121a5576121a4611ebf565b5b60006121b38482850161217a565b91505092915050565b6000815190506121cb81611f31565b92915050565b6000602082840312156121e7576121e6611ebf565b5b60006121f5848285016121bc565b91505092915050565b7f4e487b7100000000000000000000000000000000000000000000000000000000600052601160045260246000fd5b600061223882611f27565b915061224383611f27565b925082820261225181611f27565b91508282048414831517612268576122676121fe565b5b5092915050565b7f4e487b7100000000000000000000000000000000000000000000000000000000600052601260045260246000fd5b60006122a982611f27565b91506122b483611f27565b9250826122c4576122c361226f565b5b828204905092915050565b60008115159050919050565b6122e4816122cf565b81146122ef57600080fd5b50565b600081519050612301816122db565b92915050565b60006020828403121561231d5761231c611ebf565b5b600061232b848285016122f2565b91505092915050565b7f4e487b7100000000000000000000000000000000000000000000000000000000600052603260045260246000fd5b600060ff82169050919050565b600061237b82612363565b915060ff820361238e5761238d6121fe565b5b600182019050919050565b60006123a482611ee9565b9050919050565b6123b481612399565b81146123bf57600080fd5b50565b6000815190506123d1816123ab565b92915050565b6000602082840312156123ed576123ec611ebf565b5b60006123fb848285016123c2565b91505092915050565b600082825260208201905092915050565b7f45786368616e67653a206661696c656420746f20627579206465737420746f6b60008201527f656e000000000000000000000000000000000000000000000000000000000000602082015250565b6000612471602283612404565b915061247c82612415565b604082019050919050565b600060208201905081810360008301526124a081612464565b9050919050565b60006040820190506124bc6000830185612007565b6124c96020830184611fb0565b9392505050565b7f45786368616e67653a20596f75206e65656420746f207472616465206174206c60008201527f6561737420736f6d6520746f6b656e7300000000000000000000000000000000602082015250565b600061252c603083612404565b9150612537826124d0565b604082019050919050565b6000602082019050818103600083015261255b8161251f565b9050919050565b60006040820190506125776000830185612007565b6125846020830184612007565b9392505050565b7f45786368616e67653a20436865636b2074686520746f6b656e20616c6c6f776160008201527f6e63650000000000000000000000000000000000000000000000000000000000602082015250565b60006125e7602383612404565b91506125f28261258b565b604082019050919050565b60006020820190508181036000830152612616816125da565b9050919050565b7f45786368616e67653a2073656e64657220646f65736e2774206861766520656e60008201527f6f75676820546f6b656e73000000000000000000000000000000000000000000602082015250565b6000612679602b83612404565b91506126848261261d565b604082019050919050565b600060208201905081810360008301526126a88161266c565b9050919050565b7f45786368616e67653a2063757272656e746c7920746869732045786368616e6760008201527f6520646f65736e74206861766520656e6f7567682064657374696e6174696f6e60208201527f20546f6b656e0000000000000000000000000000000000000000000000000000604082015250565b6000612731604683612404565b915061273c826126af565b606082019050919050565b6000602082019050818103600083015261276081612724565b9050919050565b600060608201905061277c6000830186612007565b6127896020830185612007565b6127966040830184611fb0565b949350505050565b6000819050919050565b6000819050919050565b60006127cd6127c86127c38461279e565b6127a8565b611f27565b9050919050565b6127dd816127b2565b82525050565b60006040820190506127f86000830185612007565b61280560208301846127d4565b9392505050565b7f45786368616e67653a206661696c656420746f2073656c6c2073726320746f6b60008201527f656e000000000000000000000000000000000000000000000000000000000000602082015250565b6000612868602283612404565b91506128738261280c565b604082019050919050565b600060208201905081810360008301526128978161285b565b9050919050565b600080fd5b600080fd5b6000601f19601f8301169050919050565b7f4e487b7100000000000000000000000000000000000000000000000000000000600052604160045260246000fd5b6128f1826128a8565b810181811067ffffffffffffffff821117156129105761290f6128b9565b5b80604052505050565b6000612923611eb5565b905061292f82826128e8565b919050565b600067ffffffffffffffff82111561294f5761294e6128b9565b5b612958826128a8565b9050602081019050919050565b60005b83811015612983578082015181840152602081019050612968565b60008484015250505050565b60006129a261299d84612934565b612919565b9050828152602081018484840111156129be576129bd6128a3565b5b6129c9848285612965565b509392505050565b600082601f8301126129e6576129e561289e565b5b81516129f684826020860161298f565b91505092915050565b600060208284031215612a1557612a14611ebf565b5b600082015167ffffffffffffffff811115612a3357612a32611ec4565b5b612a3f848285016129d1565b91505092915050565b7f4e487b7100000000000000000000000000000000000000000000000000000000600052602260045260246000fd5b60006002820490506001821680612a8f57607f821691505b602082108103612aa257612aa1612a48565b5b50919050565b600081519050919050565b60008190508160005260206000209050919050565b60006020601f8301049050919050565b600082821b905092915050565b600060088302612b157fffffffffffffffffffffffffffffffffffffffffffffffffffffffffffffffff82612ad8565b612b1f8683612ad8565b95508019841693508086168417925050509392505050565b6000612b52612b4d612b4884611f27565b6127a8565b611f27565b9050919050565b6000819050919050565b612b6c83612b37565b612b80612b7882612b59565b848454612ae5565b825550505050565b600090565b612b95612b88565b612ba0818484612b63565b505050565b5b81811015612bc457612bb9600082612b8d565b600181019050612ba6565b5050565b601f821115612c0957612bda81612ab3565b612be384612ac8565b81016020851015612bf2578190505b612c06612bfe85612ac8565b830182612ba5565b50505b505050565b600082821c905092915050565b6000612c2c60001984600802612c0e565b1980831691505092915050565b6000612c458383612c1b565b9150826002028217905092915050565b612c5e82612aa8565b67ffffffffffffffff811115612c7757612c766128b9565b5b612c818254612a77565b612c8c828285612bc8565b600060209050601f831160018114612cbf5760008415612cad578287015190505b612cb78582612c39565b865550612d1f565b601f198416612ccd86612ab3565b60005b82811015612cf557848901518255600182019150602085019450602081019050612cd0565b86831015612d125784890151612d0e601f891682612c1b565b8355505b6001600288020188555050505b505050505050565b6000612d3282611f27565b9150612d3d83611f27565b9250828203905081811115612d5557612d546121fe565b5b92915050565b6000612d6682611f27565b9150612d7183611f27565b9250828201905080821115612d8957612d886121fe565b5b92915050565b600081549050612d9e81612a77565b9050919050565b60008190508160005260206000209050919050565b818103612dc8575050612ea0565b612dd182612d8f565b67ffffffffffffffff811115612dea57612de96128b9565b5b612df48254612a77565b612dff828285612bc8565b6000601f831160018114612e2e5760008415612e1c578287015490505b612e268582612c39565b865550612e99565b601f198416612e3c87612da5565b9650612e4786612ab3565b60005b82811015612e6f57848901548255600182019150600185019450602081019050612e4a565b86831015612e8c5784890154612e88601f891682612c1b565b8355505b6001600288020188555050505b5050505050505b565b6000612ead82611f27565b91507fffffffffffffffffffffffffffffffffffffffffffffffffffffffffffffffff8203612edf57612ede6121fe565b5b600182019050919050565b7f4e487b7100000000000000000000000000000000000000000000000000000000600052603160045260246000fd5b7f64732d6d6174682d6d756c2d6f766572666c6f77000000000000000000000000600082015250565b6000612f4f601483612404565b9150612f5a82612f19565b602082019050919050565b60006020820190508181036000830152612f7e81612f42565b905091905056fea2646970667358221220d54676d85ee37f2f7eb7f357a589f9dce7320dc471e11ae22cf04642091fa5ad64736f6c63430008130033",
  "immutableReferences": {},
  "source": "pragma solidity ^0.8.0;\r\n\r\nimport \"./Reserve.sol\";\r\nimport \"./IERC20.sol\";\r\n\r\ncontract Exchange {\r\n \r\n    mapping(address => address) token_reserve_map;\r\n    address[] tokenAddresses;\r\n    string[] tokenSymbols;\r\n    string[] tokenNames;\r\n    address public owner;\r\n\r\n    modifier onlyOwner() {\r\n        require(msg.sender == owner);\r\n        _;\r\n    }\r\n\r\n    constructor() public {\r\n        owner = msg.sender;\r\n    }\r\n\r\n    receive() external payable {\r\n    }\r\n\r\n    function checkEthBalance() public view returns(uint256){\r\n        return (payable(address(this))).balance;\r\n    }\r\n\r\n    function getListOfSupportedTokens() public view returns (address[] memory) {\r\n        return tokenAddresses;\r\n    }\r\n\r\n    function getExchangeRate(\r\n        address srcToken,\r\n        address destToken,\r\n        uint256 amount\r\n    ) public view returns (uint256) {\r\n        uint256 sourceRate = 1;\r\n        if (srcToken != address(0)) {\r\n            sourceRate = Reserve(token_reserve_map[srcToken]).rate();\r\n        }\r\n\r\n        uint256 destinationRate = 1;\r\n        if (destToken != address(0)) {\r\n            destinationRate = Reserve(token_reserve_map[destToken]).rate();\r\n        }\r\n\r\n        return (amount * destinationRate) / sourceRate;\r\n    }\r\n\r\n    function exchange(address srcTokenAddress, address destTokenAddress, uint256 srcAmount) public returns (uint256) {\r\n        Reserve srcReserve = Reserve(token_reserve_map[srcTokenAddress]);\r\n        Reserve destReserve = Reserve(token_reserve_map[destTokenAddress]);\r\n        BasicToken srcToken = srcReserve.token();\r\n        BasicToken destToken = destReserve.token();\r\n\r\n        require(srcAmount > 0, \"Exchange: You need to trade at least some tokens\");\r\n        require(srcToken.allowance(msg.sender, address(this)) >= srcAmount, \"Exchange: Check the token allowance\");\r\n\r\n        uint256 exchangeAmount = getExchangeRate(srcTokenAddress, destTokenAddress, srcAmount);\r\n\r\n        require(srcToken.balanceOf(msg.sender) >= srcAmount, \"Exchange: sender doesn't have enough Tokens\");\r\n        require(destToken.balanceOf(address(this)) >= exchangeAmount, \"Exchange: currently this Exchange doesnt have enough destination Token\");\r\n\r\n        srcToken.transferFrom(msg.sender, address(this), srcAmount);\r\n\r\n        destToken.transfer(msg.sender, exchangeAmount);\r\n\r\n        return exchangeAmount;\r\n    }\r\n\r\n    function exchangeEthToToken(address destTokenAddress) public payable returns (uint256) {\r\n        Reserve destReserve = Reserve(token_reserve_map[destTokenAddress]);\r\n        BasicToken destToken = destReserve.token();\r\n\r\n        require(destReserve.buy{value: msg.value}(), \"Exchange: failed to buy dest token\");\r\n        \r\n\r\n        uint256 exchangeAmount = mul(msg.value, destReserve.rate());\r\n\r\n        destToken.transfer(msg.sender, exchangeAmount);\r\n\r\n        return exchangeAmount;\r\n    }\r\n\r\n    function exchangeTokenToEth(address srcTokenAddress, uint256 amount) public returns (uint256) {\r\n        Reserve srcReserve = Reserve(token_reserve_map[srcTokenAddress]);\r\n        BasicToken srcToken = srcReserve.token();\r\n\r\n        srcToken.transferFrom(msg.sender, address(this), amount);\r\n\r\n        srcToken.approve(token_reserve_map[srcTokenAddress], 10e18);\r\n        require(srcReserve.sell(amount), \"Exchange: failed to sell src token\");\r\n\r\n        payable(msg.sender).transfer(amount / srcReserve.rate());\r\n\r\n        return amount / srcReserve.rate();\r\n    }\r\n\r\n    function addReserve(Reserve newReserve) public onlyOwner {\r\n        // get token\r\n        BasicToken token = newReserve.token();\r\n        address tokenAddress = address(token);\r\n        string memory symbol = token.symbol();\r\n        string memory name = token.name();\r\n\r\n        // Validate new token: new token must not exist in tokenAddresses\r\n        for (uint8 index = 0; index < tokenAddresses.length; index++) {\r\n            require(tokenAddress != tokenAddresses[index]);\r\n            require(!equal(token.symbol(), tokenSymbols[index]));\r\n            require(!equal(name, tokenNames[index]));\r\n        }\r\n        \r\n        // mapping token to reserve\r\n        token_reserve_map[tokenAddress] = address(newReserve);\r\n        // add token to list of tokens (Using in getting list of supported token)\r\n        tokenAddresses.push(tokenAddress);\r\n        tokenSymbols.push(symbol);\r\n        tokenNames.push(name);\r\n    }\r\n\r\n    function buyToken(address tokenAddress) public payable onlyOwner {\r\n        Reserve reserve = Reserve(token_reserve_map[tokenAddress]);\r\n        reserve.buy{value: msg.value}();\r\n    }\r\n\r\n    // // Remove reserve\r\n    function removeReserve(address tokenAddress) public onlyOwner {\r\n        for (uint8 index = 0; index < tokenAddresses.length; index++) {\r\n            if (tokenAddress == tokenAddresses[index]) {\r\n                removeReserveData(index);\r\n                break;\r\n            }\r\n        }\r\n        delete token_reserve_map[tokenAddress];\r\n    }\r\n\r\n    function removeReserveData(uint256 index) private {\r\n            // y cc phn t pha sau ln pha trc 1 n v\r\n            for (uint i = index; i < tokenAddresses.length-1; i++){\r\n                tokenAddresses[i] = tokenAddresses[i+1];\r\n                tokenSymbols[i] = tokenSymbols[i+1];\r\n                tokenNames[i] = tokenNames[i+1];\r\n            }\r\n            // Xa b phn t cui cng\r\n            tokenAddresses.pop();\r\n            tokenSymbols.pop();\r\n            tokenNames.pop();\r\n        }\r\n\r\n\r\n    function compare(string memory _a, string memory _b) private pure returns (int) {\r\n        bytes memory a = bytes(_a);\r\n        bytes memory b = bytes(_b);\r\n        uint minLength = a.length;\r\n        if (b.length < minLength) minLength = b.length;\r\n        //@todo unroll the loop into increments of 32 and do full 32 byte comparisons\r\n        for (uint i = 0; i < minLength; i ++)\r\n            if (a[i] < b[i])\r\n                return -1;\r\n            else if (a[i] > b[i])\r\n                return 1;\r\n        if (a.length < b.length)\r\n            return -1;\r\n        else if (a.length > b.length)\r\n            return 1;\r\n        else\r\n            return 0;\r\n    }\r\n    /// @dev Compares two strings and returns true iff they are equal.\r\n    function equal(string memory _a, string memory _b) private pure returns (bool) {\r\n        return compare(_a, _b) == 0;\r\n    }\r\n    function mul(uint256 x, uint256 y) internal pure returns (uint256 z) {\r\n        require(y == 0 || (z = x * y) / y == x, \"ds-math-mul-overflow\");\r\n    }\r\n}\r\n",
  "sourcePath": "C:\\Users\\ADMIN\\Desktop\\Project\\contracts\\Exchange.sol",
  "compiler": {
    "name": "solc",
    "version": "0.8.19+commit.7dd6d404.Emscripten.clang"
  },
  "schemaVersion": "3.4.13",
  "updatedAt": "2023-04-03T13:47:06.113Z",
  "networkType": "ethereum",
  "devdoc": {
    "kind": "dev",
    "methods": {},
    "version": 1
  },
  "userdoc": {
    "kind": "user",
    "methods": {},
    "version": 1
  }
}