{
  "contractName": "Reserve",
  "abi": [
    {
      "inputs": [
        {
          "internalType": "string",
          "name": "_name",
          "type": "string"
        },
        {
          "internalType": "string",
          "name": "_symbol",
          "type": "string"
        },
        {
          "internalType": "uint256",
          "name": "_rate",
          "type": "uint256"
        }
      ],
      "stateMutability": "nonpayable",
      "type": "constructor"
    },
    {
      "anonymous": false,
      "inputs": [
        {
          "indexed": false,
          "internalType": "uint256",
          "name": "amount",
          "type": "uint256"
        }
      ],
      "name": "Bought",
      "type": "event"
    },
    {
      "anonymous": false,
      "inputs": [
        {
          "indexed": false,
          "internalType": "uint256",
          "name": "amount",
          "type": "uint256"
        }
      ],
      "name": "Sold",
      "type": "event"
    },
    {
      "inputs": [],
      "name": "owner",
      "outputs": [
        {
          "internalType": "address",
          "name": "",
          "type": "address"
        }
      ],
      "stateMutability": "view",
      "type": "function",
      "constant": true
    },
    {
      "inputs": [],
      "name": "rate",
      "outputs": [
        {
          "internalType": "uint256",
          "name": "",
          "type": "uint256"
        }
      ],
      "stateMutability": "view",
      "type": "function",
      "constant": true
    },
    {
      "inputs": [],
      "name": "token",
      "outputs": [
        {
          "internalType": "contract BasicToken",
          "name": "",
          "type": "address"
        }
      ],
      "stateMutability": "view",
      "type": "function",
      "constant": true
    },
    {
      "inputs": [],
      "name": "buy",
      "outputs": [
        {
          "internalType": "bool",
          "name": "",
          "type": "bool"
        }
      ],
      "stateMutability": "payable",
      "type": "function",
      "payable": true
    },
    {
      "inputs": [
        {
          "internalType": "uint256",
          "name": "amount",
          "type": "uint256"
        }
      ],
      "name": "sell",
      "outputs": [
        {
          "internalType": "bool",
          "name": "",
          "type": "bool"
        }
      ],
      "stateMutability": "nonpayable",
      "type": "function"
    },
    {
      "inputs": [],
      "name": "getTokenAddress",
      "outputs": [
        {
          "internalType": "address",
          "name": "",
          "type": "address"
        }
      ],
      "stateMutability": "view",
      "type": "function",
      "constant": true
    },
    {
      "inputs": [
        {
          "internalType": "uint256",
          "name": "newRate",
          "type": "uint256"
        }
      ],
      "name": "setRate",
      "outputs": [],
      "stateMutability": "nonpayable",
      "type": "function"
    }
  ],
  "bytecode": "0x608060405260016002553480156200001657600080fd5b50604051620028583803806200285883398181016040528101906200003c9190620002e3565b336000806101000a81548173ffffffffffffffffffffffffffffffffffffffff021916908373ffffffffffffffffffffffffffffffffffffffff16021790555082826040516200008c9062000107565b62000099929190620003da565b604051809103906000f080158015620000b6573d6000803e3d6000fd5b50600160006101000a81548173ffffffffffffffffffffffffffffffffffffffff021916908373ffffffffffffffffffffffffffffffffffffffff1602179055508060028190555050505062000415565b61166c80620011ec83390190565b6000604051905090565b600080fd5b600080fd5b600080fd5b600080fd5b6000601f19601f8301169050919050565b7f4e487b7100000000000000000000000000000000000000000000000000000000600052604160045260246000fd5b6200017e8262000133565b810181811067ffffffffffffffff82111715620001a0576200019f62000144565b5b80604052505050565b6000620001b562000115565b9050620001c3828262000173565b919050565b600067ffffffffffffffff821115620001e657620001e562000144565b5b620001f18262000133565b9050602081019050919050565b60005b838110156200021e57808201518184015260208101905062000201565b60008484015250505050565b6000620002416200023b84620001c8565b620001a9565b90508281526020810184848401111562000260576200025f6200012e565b5b6200026d848285620001fe565b509392505050565b600082601f8301126200028d576200028c62000129565b5b81516200029f8482602086016200022a565b91505092915050565b6000819050919050565b620002bd81620002a8565b8114620002c957600080fd5b50565b600081519050620002dd81620002b2565b92915050565b600080600060608486031215620002ff57620002fe6200011f565b5b600084015167ffffffffffffffff81111562000320576200031f62000124565b5b6200032e8682870162000275565b935050602084015167ffffffffffffffff81111562000352576200035162000124565b5b620003608682870162000275565b92505060406200037386828701620002cc565b9150509250925092565b600081519050919050565b600082825260208201905092915050565b6000620003a6826200037d565b620003b2818562000388565b9350620003c4818560208601620001fe565b620003cf8162000133565b840191505092915050565b60006040820190508181036000830152620003f6818562000399565b905081810360208301526200040c818462000399565b90509392505050565b610dc780620004256000396000f3fe6080604052600436106100705760003560e01c80638da5cb5b1161004e5780638da5cb5b146100f4578063a6f2ae3a1461011f578063e4849b321461013d578063fc0c546a1461017a57610070565b806310fe9ae8146100755780632c4e722e146100a057806334fcf437146100cb575b600080fd5b34801561008157600080fd5b5061008a6101a5565b604051610097919061077a565b60405180910390f35b3480156100ac57600080fd5b506100b56101cf565b6040516100c291906107ae565b60405180910390f35b3480156100d757600080fd5b506100f260048036038101906100ed91906107fa565b6101d5565b005b34801561010057600080fd5b5061010961027a565b604051610116919061077a565b60405180910390f35b61012761029e565b6040516101349190610842565b60405180910390f35b34801561014957600080fd5b50610164600480360381019061015f91906107fa565b6104b2565b6040516101719190610842565b60405180910390f35b34801561018657600080fd5b5061018f610713565b60405161019c91906108bc565b60405180910390f35b6000600160009054906101000a900473ffffffffffffffffffffffffffffffffffffffff16905090565b60025481565b60008054906101000a900473ffffffffffffffffffffffffffffffffffffffff1673ffffffffffffffffffffffffffffffffffffffff163373ffffffffffffffffffffffffffffffffffffffff161461022d57600080fd5b60008111610270576040517f08c379a000000000000000000000000000000000000000000000000000000000815260040161026790610934565b60405180910390fd5b8060028190555050565b60008054906101000a900473ffffffffffffffffffffffffffffffffffffffff1681565b600080600254346102af9190610983565b9050600081116102f4576040517f08c379a00000000000000000000000000000000000000000000000000000000081526004016102eb90610a37565b60405180910390fd5b600160009054906101000a900473ffffffffffffffffffffffffffffffffffffffff1673ffffffffffffffffffffffffffffffffffffffff166370a08231306040518263ffffffff1660e01b815260040161034f919061077a565b602060405180830381865afa15801561036c573d6000803e3d6000fd5b505050506040513d601f19601f820116820180604052508101906103909190610a6c565b8111156103d2576040517f08c379a00000000000000000000000000000000000000000000000000000000081526004016103c990610b0b565b60405180910390fd5b600160009054906101000a900473ffffffffffffffffffffffffffffffffffffffff1673ffffffffffffffffffffffffffffffffffffffff1663a9059cbb33836040518363ffffffff1660e01b815260040161042f929190610b2b565b6020604051808303816000875af115801561044e573d6000803e3d6000fd5b505050506040513d601f19601f820116820180604052508101906104729190610b80565b507f4e08ba899977cf7d4c2964bce71c6b9a7ef76ee5166a4c1249a1e08016e33ef1816040516104a291906107ae565b60405180910390a1600191505090565b60008082116104f6576040517f08c379a00000000000000000000000000000000000000000000000000000000081526004016104ed90610c1f565b60405180910390fd5b6000600160009054906101000a900473ffffffffffffffffffffffffffffffffffffffff1673ffffffffffffffffffffffffffffffffffffffff1663dd62ed3e33306040518363ffffffff1660e01b8152600401610555929190610c3f565b602060405180830381865afa158015610572573d6000803e3d6000fd5b505050506040513d601f19601f820116820180604052508101906105969190610a6c565b9050828110156105db576040517f08c379a00000000000000000000000000000000000000000000000000000000081526004016105d290610cda565b60405180910390fd5b600160009054906101000a900473ffffffffffffffffffffffffffffffffffffffff1673ffffffffffffffffffffffffffffffffffffffff166323b872dd3330866040518463ffffffff1660e01b815260040161063a93929190610cfa565b6020604051808303816000875af1158015610659573d6000803e3d6000fd5b505050506040513d601f19601f8201168201806040525081019061067d9190610b80565b503373ffffffffffffffffffffffffffffffffffffffff166108fc600254856106a69190610d60565b9081150290604051600060405180830381858888f193505050501580156106d1573d6000803e3d6000fd5b507f92f64ca637d023f354075a4be751b169c1a8a9ccb6d33cdd0cb35205439957278360405161070191906107ae565b60405180910390a16001915050919050565b600160009054906101000a900473ffffffffffffffffffffffffffffffffffffffff1681565b600073ffffffffffffffffffffffffffffffffffffffff82169050919050565b600061076482610739565b9050919050565b61077481610759565b82525050565b600060208201905061078f600083018461076b565b92915050565b6000819050919050565b6107a881610795565b82525050565b60006020820190506107c3600083018461079f565b92915050565b600080fd5b6107d781610795565b81146107e257600080fd5b50565b6000813590506107f4816107ce565b92915050565b6000602082840312156108105761080f6107c9565b5b600061081e848285016107e5565b91505092915050565b60008115159050919050565b61083c81610827565b82525050565b60006020820190506108576000830184610833565b92915050565b6000819050919050565b600061088261087d61087884610739565b61085d565b610739565b9050919050565b600061089482610867565b9050919050565b60006108a682610889565b9050919050565b6108b68161089b565b82525050565b60006020820190506108d160008301846108ad565b92915050565b600082825260208201905092915050565b7f72617465206d7573742067726561746572207468616e20300000000000000000600082015250565b600061091e6018836108d7565b9150610929826108e8565b602082019050919050565b6000602082019050818103600083015261094d81610911565b9050919050565b7f4e487b7100000000000000000000000000000000000000000000000000000000600052601160045260246000fd5b600061098e82610795565b915061099983610795565b92508282026109a781610795565b915082820484148315176109be576109bd610954565b5b5092915050565b7f526573657276653a20596f75206e65656420746f2073656e6420736f6d65206560008201527f7468657200000000000000000000000000000000000000000000000000000000602082015250565b6000610a216024836108d7565b9150610a2c826109c5565b604082019050919050565b60006020820190508181036000830152610a5081610a14565b9050919050565b600081519050610a66816107ce565b92915050565b600060208284031215610a8257610a816107c9565b5b6000610a9084828501610a57565b91505092915050565b7f526573657276653a204e6f7420656e6f75676820746f6b656e7320696e20746860008201527f6520726573657276650000000000000000000000000000000000000000000000602082015250565b6000610af56029836108d7565b9150610b0082610a99565b604082019050919050565b60006020820190508181036000830152610b2481610ae8565b9050919050565b6000604082019050610b40600083018561076b565b610b4d602083018461079f565b9392505050565b610b5d81610827565b8114610b6857600080fd5b50565b600081519050610b7a81610b54565b92915050565b600060208284031215610b9657610b956107c9565b5b6000610ba484828501610b6b565b91505092915050565b7f526573657276653a20596f75206e65656420746f2073656c6c206174206c656160008201527f737420736f6d6520746f6b656e73000000000000000000000000000000000000602082015250565b6000610c09602e836108d7565b9150610c1482610bad565b604082019050919050565b60006020820190508181036000830152610c3881610bfc565b9050919050565b6000604082019050610c54600083018561076b565b610c61602083018461076b565b9392505050565b7f526573657276653a20436865636b2074686520746f6b656e20616c6c6f77616e60008201527f6365000000000000000000000000000000000000000000000000000000000000602082015250565b6000610cc46022836108d7565b9150610ccf82610c68565b604082019050919050565b60006020820190508181036000830152610cf381610cb7565b9050919050565b6000606082019050610d0f600083018661076b565b610d1c602083018561076b565b610d29604083018461079f565b949350505050565b7f4e487b7100000000000000000000000000000000000000000000000000000000600052601260045260246000fd5b6000610d6b82610795565b9150610d7683610795565b925082610d8657610d85610d31565b5b82820490509291505056fea264697066735822122043316bd20da4f53095cb74b0946483a80eb66d7c46c64eb9ea763751e7bd767064736f6c634300081300336080604052678ac7230489e800006004553480156200001d57600080fd5b506040516200166c3803806200166c833981810160405281019062000043919062000248565b816000908162000054919062000518565b50806001908162000066919062000518565b50600454600260003373ffffffffffffffffffffffffffffffffffffffff1673ffffffffffffffffffffffffffffffffffffffff168152602001908152602001600020819055505050620005ff565b6000604051905090565b600080fd5b600080fd5b600080fd5b600080fd5b6000601f19601f8301169050919050565b7f4e487b7100000000000000000000000000000000000000000000000000000000600052604160045260246000fd5b6200011e82620000d3565b810181811067ffffffffffffffff8211171562000140576200013f620000e4565b5b80604052505050565b600062000155620000b5565b905062000163828262000113565b919050565b600067ffffffffffffffff821115620001865762000185620000e4565b5b6200019182620000d3565b9050602081019050919050565b60005b83811015620001be578082015181840152602081019050620001a1565b60008484015250505050565b6000620001e1620001db8462000168565b62000149565b9050828152602081018484840111156200020057620001ff620000ce565b5b6200020d8482856200019e565b509392505050565b600082601f8301126200022d576200022c620000c9565b5b81516200023f848260208601620001ca565b91505092915050565b60008060408385031215620002625762000261620000bf565b5b600083015167ffffffffffffffff811115620002835762000282620000c4565b5b620002918582860162000215565b925050602083015167ffffffffffffffff811115620002b557620002b4620000c4565b5b620002c38582860162000215565b9150509250929050565b600081519050919050565b7f4e487b7100000000000000000000000000000000000000000000000000000000600052602260045260246000fd5b600060028204905060018216806200032057607f821691505b602082108103620003365762000335620002d8565b5b50919050565b60008190508160005260206000209050919050565b60006020601f8301049050919050565b600082821b905092915050565b600060088302620003a07fffffffffffffffffffffffffffffffffffffffffffffffffffffffffffffffff8262000361565b620003ac868362000361565b95508019841693508086168417925050509392505050565b6000819050919050565b6000819050919050565b6000620003f9620003f3620003ed84620003c4565b620003ce565b620003c4565b9050919050565b6000819050919050565b6200041583620003d8565b6200042d620004248262000400565b8484546200036e565b825550505050565b600090565b6200044462000435565b620004518184846200040a565b505050565b5b8181101562000479576200046d6000826200043a565b60018101905062000457565b5050565b601f821115620004c85762000492816200033c565b6200049d8462000351565b81016020851015620004ad578190505b620004c5620004bc8562000351565b83018262000456565b50505b505050565b600082821c905092915050565b6000620004ed60001984600802620004cd565b1980831691505092915050565b6000620005088383620004da565b9150826002028217905092915050565b6200052382620002cd565b67ffffffffffffffff8111156200053f576200053e620000e4565b5b6200054b825462000307565b620005588282856200047d565b600060209050601f8311600181146200059057600084156200057b578287015190505b620005878582620004fa565b865550620005f7565b601f198416620005a0866200033c565b60005b82811015620005ca57848901518255600182019150602085019450602081019050620005a3565b86831015620005ea5784890151620005e6601f891682620004da565b8355505b6001600288020188555050505b505050505050565b61105d806200060f6000396000f3fe608060405234801561001057600080fd5b50600436106100a95760003560e01c8063313ce56711610071578063313ce5671461017a5780635c6581651461019857806370a08231146101c857806395d89b41146101f8578063a9059cbb14610216578063dd62ed3e14610246576100a9565b806306fdde03146100ae578063095ea7b3146100cc57806318160ddd146100fc57806323b872dd1461011a57806327e235e31461014a575b600080fd5b6100b6610276565b6040516100c39190610be0565b60405180910390f35b6100e660048036038101906100e19190610c9b565b610304565b6040516100f39190610cf6565b60405180910390f35b6101046103f6565b6040516101119190610d20565b60405180910390f35b610134600480360381019061012f9190610d3b565b610400565b6040516101419190610cf6565b60405180910390f35b610164600480360381019061015f9190610d8e565b6107d7565b6040516101719190610d20565b60405180910390f35b6101826107ef565b60405161018f9190610dd7565b60405180910390f35b6101b260048036038101906101ad9190610df2565b6107f4565b6040516101bf9190610d20565b60405180910390f35b6101e260048036038101906101dd9190610d8e565b610819565b6040516101ef9190610d20565b60405180910390f35b610200610862565b60405161020d9190610be0565b60405180910390f35b610230600480360381019061022b9190610c9b565b6108f0565b60405161023d9190610cf6565b60405180910390f35b610260600480360381019061025b9190610df2565b610ac9565b60405161026d9190610d20565b60405180910390f35b6000805461028390610e61565b80601f01602080910402602001604051908101604052809291908181526020018280546102af90610e61565b80156102fc5780601f106102d1576101008083540402835291602001916102fc565b820191906000526020600020905b8154815290600101906020018083116102df57829003601f168201915b505050505081565b600081600360003373ffffffffffffffffffffffffffffffffffffffff1673ffffffffffffffffffffffffffffffffffffffff16815260200190815260200160002060008573ffffffffffffffffffffffffffffffffffffffff1673ffffffffffffffffffffffffffffffffffffffff168152602001908152602001600020819055508273ffffffffffffffffffffffffffffffffffffffff163373ffffffffffffffffffffffffffffffffffffffff167f8c5be1e5ebec7d5bd14f71427d1e84f3dd0314c0f7b2291e5b200ac8c7c3b925846040516103e49190610d20565b60405180910390a36001905092915050565b6000600454905090565b6000600260008573ffffffffffffffffffffffffffffffffffffffff1673ffffffffffffffffffffffffffffffffffffffff16815260200190815260200160002054821115610484576040517f08c379a000000000000000000000000000000000000000000000000000000000815260040161047b90610f04565b60405180910390fd5b600360008573ffffffffffffffffffffffffffffffffffffffff1673ffffffffffffffffffffffffffffffffffffffff16815260200190815260200160002060003373ffffffffffffffffffffffffffffffffffffffff1673ffffffffffffffffffffffffffffffffffffffff16815260200190815260200160002054821115610543576040517f08c379a000000000000000000000000000000000000000000000000000000000815260040161053a90610f70565b60405180910390fd5b81600260008673ffffffffffffffffffffffffffffffffffffffff1673ffffffffffffffffffffffffffffffffffffffff1681526020019081526020016000205461058e9190610fbf565b600260008673ffffffffffffffffffffffffffffffffffffffff1673ffffffffffffffffffffffffffffffffffffffff1681526020019081526020016000208190555081600360008673ffffffffffffffffffffffffffffffffffffffff1673ffffffffffffffffffffffffffffffffffffffff16815260200190815260200160002060003373ffffffffffffffffffffffffffffffffffffffff1673ffffffffffffffffffffffffffffffffffffffff168152602001908152602001600020546106599190610fbf565b600360008673ffffffffffffffffffffffffffffffffffffffff1673ffffffffffffffffffffffffffffffffffffffff16815260200190815260200160002060003373ffffffffffffffffffffffffffffffffffffffff1673ffffffffffffffffffffffffffffffffffffffff1681526020019081526020016000208190555081600260008573ffffffffffffffffffffffffffffffffffffffff1673ffffffffffffffffffffffffffffffffffffffff168152602001908152602001600020546107249190610ff3565b600260008573ffffffffffffffffffffffffffffffffffffffff1673ffffffffffffffffffffffffffffffffffffffff168152602001908152602001600020819055508273ffffffffffffffffffffffffffffffffffffffff168473ffffffffffffffffffffffffffffffffffffffff167fddf252ad1be2c89b69c2b068fc378daa952ba7f163c4a11628f55a4df523b3ef846040516107c49190610d20565b60405180910390a3600190509392505050565b60026020528060005260406000206000915090505481565b601281565b6003602052816000526040600020602052806000526040600020600091509150505481565b6000600260008373ffffffffffffffffffffffffffffffffffffffff1673ffffffffffffffffffffffffffffffffffffffff168152602001908152602001600020549050919050565b6001805461086f90610e61565b80601f016020809104026020016040519081016040528092919081815260200182805461089b90610e61565b80156108e85780601f106108bd576101008083540402835291602001916108e8565b820191906000526020600020905b8154815290600101906020018083116108cb57829003601f168201915b505050505081565b6000600260003373ffffffffffffffffffffffffffffffffffffffff1673ffffffffffffffffffffffffffffffffffffffff1681526020019081526020016000205482111561093e57600080fd5b81600260003373ffffffffffffffffffffffffffffffffffffffff1673ffffffffffffffffffffffffffffffffffffffff168152602001908152602001600020546109899190610fbf565b600260003373ffffffffffffffffffffffffffffffffffffffff1673ffffffffffffffffffffffffffffffffffffffff1681526020019081526020016000208190555081600260008573ffffffffffffffffffffffffffffffffffffffff1673ffffffffffffffffffffffffffffffffffffffff16815260200190815260200160002054610a179190610ff3565b600260008573ffffffffffffffffffffffffffffffffffffffff1673ffffffffffffffffffffffffffffffffffffffff168152602001908152602001600020819055508273ffffffffffffffffffffffffffffffffffffffff163373ffffffffffffffffffffffffffffffffffffffff167fddf252ad1be2c89b69c2b068fc378daa952ba7f163c4a11628f55a4df523b3ef84604051610ab79190610d20565b60405180910390a36001905092915050565b6000600360008473ffffffffffffffffffffffffffffffffffffffff1673ffffffffffffffffffffffffffffffffffffffff16815260200190815260200160002060008373ffffffffffffffffffffffffffffffffffffffff1673ffffffffffffffffffffffffffffffffffffffff16815260200190815260200160002054905092915050565b600081519050919050565b600082825260208201905092915050565b60005b83811015610b8a578082015181840152602081019050610b6f565b60008484015250505050565b6000601f19601f8301169050919050565b6000610bb282610b50565b610bbc8185610b5b565b9350610bcc818560208601610b6c565b610bd581610b96565b840191505092915050565b60006020820190508181036000830152610bfa8184610ba7565b905092915050565b600080fd5b600073ffffffffffffffffffffffffffffffffffffffff82169050919050565b6000610c3282610c07565b9050919050565b610c4281610c27565b8114610c4d57600080fd5b50565b600081359050610c5f81610c39565b92915050565b6000819050919050565b610c7881610c65565b8114610c8357600080fd5b50565b600081359050610c9581610c6f565b92915050565b60008060408385031215610cb257610cb1610c02565b5b6000610cc085828601610c50565b9250506020610cd185828601610c86565b9150509250929050565b60008115159050919050565b610cf081610cdb565b82525050565b6000602082019050610d0b6000830184610ce7565b92915050565b610d1a81610c65565b82525050565b6000602082019050610d356000830184610d11565b92915050565b600080600060608486031215610d5457610d53610c02565b5b6000610d6286828701610c50565b9350506020610d7386828701610c50565b9250506040610d8486828701610c86565b9150509250925092565b600060208284031215610da457610da3610c02565b5b6000610db284828501610c50565b91505092915050565b600060ff82169050919050565b610dd181610dbb565b82525050565b6000602082019050610dec6000830184610dc8565b92915050565b60008060408385031215610e0957610e08610c02565b5b6000610e1785828601610c50565b9250506020610e2885828601610c50565b9150509250929050565b7f4e487b7100000000000000000000000000000000000000000000000000000000600052602260045260246000fd5b60006002820490506001821680610e7957607f821691505b602082108103610e8c57610e8b610e32565b5b50919050565b7f45524332303a204f776e6572206e6f742068617320656e6f75676820746f6b6560008201527f6e00000000000000000000000000000000000000000000000000000000000000602082015250565b6000610eee602183610b5b565b9150610ef982610e92565b604082019050919050565b60006020820190508181036000830152610f1d81610ee1565b9050919050565b7f45524332303a204e6f7420656e6f75676820616c6c6f77656400000000000000600082015250565b6000610f5a601983610b5b565b9150610f6582610f24565b602082019050919050565b60006020820190508181036000830152610f8981610f4d565b9050919050565b7f4e487b7100000000000000000000000000000000000000000000000000000000600052601160045260246000fd5b6000610fca82610c65565b9150610fd583610c65565b9250828203905081811115610fed57610fec610f90565b5b92915050565b6000610ffe82610c65565b915061100983610c65565b925082820190508082111561102157611020610f90565b5b9291505056fea2646970667358221220479d01119ff24e10fd3ccbb81f48158e5e22f971b86270be6d37fcb6b59c7c4f64736f6c63430008130033",
  "immutableReferences": {},
  "source": "pragma solidity ^0.8.0;\r\n\r\nimport \"./IERC20.sol\";\r\n\r\ncontract Reserve {\r\n\r\n    event Bought(uint256 amount);\r\n    event Sold(uint256 amount);\r\n\r\n    address public owner;\r\n    modifier onlyOwner() {\r\n        require(msg.sender == owner);\r\n        _;\r\n    }\r\n\r\n\r\n    BasicToken public token;\r\n    uint public rate = 1;\r\n\r\n    constructor(string memory _name, string memory _symbol, uint256 _rate) {\r\n        owner = msg.sender;\r\n\r\n        token = new BasicToken(_name, _symbol);\r\n        rate = _rate;\r\n    }\r\n\r\n    function buy() payable public returns (bool) {\r\n        uint256 amountTobuy = msg.value * rate;\r\n\r\n        require(amountTobuy > 0, \"Reserve: You need to send some ether\");\r\n        require(amountTobuy <= token.balanceOf(address(this)), \"Reserve: Not enough tokens in the reserve\");\r\n\r\n        token.transfer(msg.sender, amountTobuy);\r\n        emit Bought(amountTobuy);\r\n\r\n        return true;\r\n    }\r\n\r\n    function sell(uint256 amount) public returns (bool) {\r\n        require(amount > 0, \"Reserve: You need to sell at least some tokens\");\r\n        uint256 allowance = token.allowance(msg.sender, address(this));\r\n        require(allowance >= amount, \"Reserve: Check the token allowance\");\r\n        token.transferFrom(msg.sender, address(this), amount);\r\n        payable(msg.sender).transfer(amount/rate);\r\n        emit Sold(amount);\r\n\r\n        return true;\r\n    }\r\n\r\n    function getTokenAddress() public view returns (address){\r\n        return address(token);\r\n    }\r\n\r\n    function setRate(uint256 newRate) public onlyOwner {\r\n        require(newRate > 0, \"rate must greater than 0\");\r\n\r\n        rate = newRate;\r\n    }\r\n}\r\n",
  "sourcePath": "C:\\Users\\ADMIN\\Desktop\\Project\\contracts\\Reserve.sol",
  "compiler": {
    "name": "solc",
    "version": "0.8.19+commit.7dd6d404.Emscripten.clang"
  },
  "schemaVersion": "3.4.13",
  "updatedAt": "2023-04-03T13:47:06.095Z",
  "networkType": "ethereum",
  "devdoc": {
    "kind": "dev",
    "methods": {},
    "version": 1
  },
  "userdoc": {
    "kind": "user",
    "methods": {},
    "version": 1
  }
}